:100000000C94B5000C94B3040C94D2000C94D20060
:100010000C94D2000C94D2000C94D2000C94330EA9
:100020000C94600E0C946C0D0C94060E0C94AC0D9C
:100030000C94D90D0C943F0D0C94D2000C94D2006A
:100040000C94EC0C0C94D2000C94CE0E0C94D200B8
:100050000C94140F0C94D2000C94D2000C94D20087
:100060000C9492060C94D20005010905A101050922
:10007000150025011901290D7501950D81029501C4
:100080007503810105012507463B0175049501654E
:10009000140939810265009501750481010901A1E6
:1000A0000009300931150026FF007508950281020C
:1000B000093209330935150026FF007508950381BB
:1000C00002C0C064657465637420436C61737369B6
:1000D00063432000646574656374206E756E6368A5
:1000E00075636B20000403090412036B0065007242
:1000F000006F002E006400650076000E0350005370
:1001000000330057004900490012011001000000AF
:1001100008C016DF050001010200010902220001EA
:1001200001008032090400000103000000092101E0
:10013000010001225B000705810308000F30313206
:1001400033343536373839414243444546000000A0
:100150000100080040000001000400000100080048
:100160002000400080000001000411241FBECFEFDA
:10017000D4E0DEBFCDBF11E0A0E0B1E0EEE9F2E2F5
:1001800002C005900D92AA30B107D9F712E0AAE09B
:10019000B1E001C01D92A233B107E1F70E948602CF
:1001A0000C944D110C940000FC018081807680320B
:1001B00061F581818130C1F410921701109218010C
:1001C0001092190110921A0110921B0110921C0139
:1001D00010921D0110921E0187E191E09093F301AE
:1001E0008093F20188E00895823041F48FE191E03C
:1001F0009093F3018093F20181E008958A3029F40D
:10020000838180931F0180E0089580E0089520EAB3
:100210003FE004C0F9013197F1F701970097D1F75A
:100220000895809117018860809317010895809147
:1002300017018160809317010895809117018460F0
:1002400080931701089580911701826080931701B0
:10025000089580911701806180931701089580911E
:10026000170180628093170108956091D20170E0B8
:10027000E091D301F0E04091D401CF01807C9070F7
:10028000A5E095958795AA95E1F79B01207C3070B4
:1002900053E0359527955A95E1F7820F931F242F48
:1002A000221F2227221F820F911D33E0880F991FE2
:1002B0003A95E1F7805890409093100180930F0198
:1002C00050E023E0440F551F2A95E1F75070405845
:1002D00050405093120140931101660F771F660F33
:1002E000771F707060587040709314016093130111
:1002F000EE0FFF1FEE0FFF1FF070E058F040F0937D
:100300001601E0931501089510921701109218013B
:1003100088E0809319014091D20150E02091D301EF
:1003200030E06091D401E62FF0E0CA01880F991FF8
:10033000880F991F907080931A01C901880F991F27
:10034000880F991F809580931B01207C3070A5E059
:1003500035952795AA95E1F7407C507073E0559547
:1003600047957A95E1F7240F351F661F6627661FAC
:10037000260F311D43E0220F331F4A95E1F72093EA
:100380001C01CF0123E0880F991F2A95E1F7809582
:1003900080931E012091D10120FD83C0109219018C
:1003A0008091D00187FD03C081E08093190121FD78
:1003B00016C087E012C084E080931901992319F4D4
:1003C00083E08093190121FD0AC085E006C082E028
:1003D0008093190121FD03C086E08093190190915B
:1003E000D00194FD05C080911801816080931801AF
:1003F00093FD05C08091180180618093180192FDE2
:1004000005C08091180182608093180123FD05C00A
:100410008091170188608093170125FD05C08091A8
:10042000170181608093170124FD05C08091170199
:1004300084608093170126FD05C0809117018260BA
:100440008093170195FD05C080911701806180930D
:10045000170191FD05C080911701806280931701FB
:1004600027FD05C08091170180648093170122FD4C
:1004700005C080911701806880931701E076F070C5
:10048000F595E795F595E7958091D5018295869547
:1004900087708E0F880F880F880F809580931D01BD
:1004A00008958091D001982F907886FF84CF99236A
:1004B00009F48DCF8FCF109217011092180188E0A8
:1004C000809319018091D20180931A018091D30108
:1004D000809580931B019091D70190FD03C082E02D
:1004E0008093170191FD05C080911701846080936E
:1004F00017018091D40180931C018091D5018093D4
:100500001D018091D60180931E010895FF920F93E3
:100510001F93CF93DF930E9414080E949E0F60E008
:1005200072EC81E090E00E94920E85EB9EE00E94CA
:10053000F50880E48093C6011092C70182E566EC5D
:1005400071E042E021E00E940E068093C5018EEF2B
:100550008093C60180EA9FE0FC013197F1F7FC012E
:100560003197F1F7FC013197F1F7FC013197F1F781
:100570000197F1F782E566EC71E041E021E00E942D
:100580000E068093C5018AE090E020EA3FE0F90181
:100590003197F1F70197D9F782E569EC71E042E014
:1005A0000E94D8058093C5018091C9018E3F99F4BE
:1005B0008091CA018E3F31F500D00F9281E0EDB7F6
:1005C000FEB7818384ED90E0938382830E94510A79
:1005D00010920A0114C08D3FA9F48091CA018D3F89
:1005E00089F400D00F9211E0EDB7FEB7118383ECD0
:1005F00090E0938382830E94510A10930A010F9026
:100600000F900F900E946503549A20E040EA5FE04B
:1006100004C0A895CA010197F1F72150D1F7549869
:10062000789400EA1FE0E7E1FE2EA8950E9472038D
:100630008091E30184FFF9CF82E569EC71E046E047
:100640000E94D8058093C5018DE090E0F8013197B4
:10065000F1F70197D9F7C9ECD1E0A2EDB1E020E0C4
:1006600030E088812430310524F48F25895E8C9315
:1006700007C08F25895E8C93F901E453FE4F808378
:100680002F5F3F4F219611962630310551F710927A
:10069000C60182E566EC71E041E021E00E940E06B1
:1006A0008093C50180910A01882319F40E945B029E
:1006B00004C0813011F40E9484010E94590987E12D
:1006C00091E068E00E947704B0CFE9E6F0E0808135
:1006D00082608083E89A8BE48093E4018AE58093CA
:1006E000E30108951F93CF93DF939091F40193500A
:1006F00097FDA1C02091F1018091F0018D3209F0A8
:1007000098C0983009F095C0CCE0D0E0C21BD10968
:10071000C850DE4F83EC8093D8018AE580930201B4
:10072000109220018881807629F0CE010E94D400A9
:10073000282F76C09A811092E1018981882321F4C3
:100740001092E20122E066C0853019F49093F50121
:1007500060C0863009F049C08B81813019F489E08E
:1007600091E01AC0823041F48BE191E09093F30163
:100770008093F20122E235C08330F1F4992341F4F1
:1007800085EE90E09093F3018093F20124E029C07C
:10079000913041F489EE90E09093F3018093F2015F
:1007A00022E11FC09230E1F48BEF90E09093F301CF
:1007B0008093F2012EE015C0813241F48DE291E088
:1007C0009093F3018093F20129E00BC0823241F44F
:1007D00088E690E09093F3018093F2012BE501C04D
:1007E00020E080E4809320011BC0883021F421E0C8
:1007F00087EF91E011C0893019F49093F70109C097
:100800008A3011F421E006C08B3019F48BE4809318
:10081000E40120E081EE91E09093F3018093F201F6
:100820008F81882321F48E81821708F4282F20934A
:1008300003011092F4018091020184FF4AC080916B
:1008400003018F3F09F445C0182F893008F018E0E4
:10085000811B809303018091D80198E889278093B8
:10086000D801112341F12091F2013091F3018091DF
:10087000200186FF0DC0A9EDB1E080E090E0F90114
:10088000E80FF91FE491ED9301961817C1F708C01E
:10089000912FD901E9EDF1E08D9181939150E1F72C
:1008A0001150812F90E01F5F0196820F931F90934C
:1008B000F3018093F20189ED91E0612F0E94AF0472
:1008C000612F6C5F6C3019F08FEF809303016093A0
:1008D000020194E189B1847131F49150D9F71092F9
:1008E000F5011092EF01DF91CF911F9108951F93B1
:1008F000DC01162F8091E30184FF07C08091E401A1
:1009000098E889278093E40103C08AE58093E30196
:10091000912FE5EEF1E08D91819391501916DCF362
:1009200085EE91E0612F0E94AF041C5F1093E301FC
:100930001F910895A82FB92F80E090E041E050EA80
:1009400060956F5F58F42D9138EF822797958795C2
:1009500010F0842795273F5FC8F3F3CF0895EADFAF
:100960008D939D930895CF93CFB7CF93DF93C39586
:100970004C9BE9F74C9B0BC04C9B09C04C9B07C0A0
:100980004C9B05C04C9B03C04C9B01C08BC06F931C
:10099000C091F101DD27C850DE4F2F9365E54C9BD8
:1009A00003C02F916F91E6CF0F931F934F9320E0D9
:1009B00040E15F9309B1047104FB27F93F9350E0D4
:1009C0003BE039C0147140642F77012F53501EC093
:1009D000406819B114712F7753501FC0406409B19A
:1009E0002F770471D1F15350000023C0406219B138
:1009F0002F77147191F15350000025C00471102716
:100A0000515012F45D5F0000115027952C3F19B131
:100A1000C8F614710127015027952C3FC8F64227CC
:100A2000499309B1047110274F73115027952C3F3A
:100A3000A8F64695469519B1147179F00127015031
:100A400027952C3F98F66B5A60F3315009B1B0F6F8
:100A500000C011E01CBB002719C03B503195C31BDF
:100A6000D04011E01CBB0881033C09F10B34F9F0C4
:100A70002091EF011981110F1213EDCF4A81441F0C
:100A8000093651F10D3211F0013E29F70093F601BC
:100A90003F915F914F911F910F912F916F91CCB327
:100AA000C0FD65CFDF91CF91CFBFCF911895209139
:100AB000F601222369F31091F401112391F53430EA
:100AC00092F13093F4012093F0011091F1013BE099
:100AD000311B3093F10127C00091F40101300CF576
:100AE0000AE54F7049F43091020134FD1DC00093B6
:100AF0000201C8EDD1E01CC03091E30134FD14C007
:100B00000093E301C4EED1E013C0052710E000C05C
:100B100000000BB91AC0052710E0221F1DC010E00D
:100B200021C04AE502C032ED432FC4E1D0E032E0FB
:100B30001AB114615C9A0BB11AB954E120E865E36B
:100B400020FF05270BB9279517951C3FF0F66695F2
:100B5000B8F7B1F720FF05270BB9279517951C3F6C
:100B6000D0F62795179517FF052700001C3F0BB9F6
:100B7000B0F629913A9519F70B7E1091F501110FF6
:100B8000C651D0400BB911F01093EF0111E01CBB1E
:100B900000611AB11B7E402F4B7E54E05A95F1F74D
:100BA0000BB91AB94BB974CF880F8093BA00089566
:100BB000982F413210F040E02FC08091210188230E
:100BC000E1F781E0809321018FEF80933201109251
:100BD000290140932A01990F91609093220185EE9B
:100BE0008093BC00809121018130E1F38091290143
:100BF000841710F440912901A0912701B091280198
:100C000020E030E007C0FB01E20FF31F8D918083ED
:100C10002F5F3F4F2417B8F3842F08951F93582F49
:100C2000122F413210F081E03CC0809121018823D5
:100C3000E1F782E0809321018FEF809332011092DF
:100C4000290140932A01A0912701B0912801FB01BD
:100C500002C081918D938E2F861B8417D0F3852F30
:100C600090E0880F991F8093220185EE8093BC004D
:100C7000112321F0809121018230E1F38091320132
:100C80008F3F11F480E00DC080913201803211F469
:100C900082E007C080913201803311F084E001C00E
:100CA00083E01F910895482F613210F081E008958C
:100CB00080912101843011F082E0089560932E012B
:100CC000A0912B01B0912C01842F9C01F90102C04D
:100CD00081918D938E2F841B8617D0F380E0089529
:100CE0009093260180932501089590932401809389
:100CF00023010895882311F085EC01C085E88093D5
:100D0000BC00089585ED8093BC008091BC0084FDFB
:100D1000FCCF10922101089585EC8093BC001092C5
:100D2000210108951F920F920FB60F9211242F9355
:100D30003F934F935F936F937F938F939F93AF9363
:100D4000BF93EF93FF938091B90090E0887F9070FC
:100D50008036910509F4E2C081369105CCF58832E0
:100D6000910509F47BC089329105B4F48031910575
:100D700009F46FC0813191053CF4009709F438C142
:100D8000089709F040C165C08831910509F466C033
:100D9000809709F038C17FC08034910509F4A3C061
:100DA0008134910544F48033910509F47FC0C897DC
:100DB00009F029C186C08035910509F486C08835BF
:100DC000910509F495C08834910509F01CC19EC0B5
:100DD0008839910509F404C189399105ECF4883703
:100DE000910509F49BC0893791054CF4883691052B
:100DF00009F494C08037910509F005C18FC0883887
:100E0000910509F4EDC08039910509F48DC0803851
:100E1000910509F0F8C088C0803B910509F4B2C083
:100E2000813B91054CF4803A910509F491C0883AD0
:100E3000910509F0E8C0A6C0803C910509F4D4C032
:100E4000883C910509F4D0C0883B910509F0DBC0CE
:100E5000B1C0809122018093BB00C0C09091290154
:100E600080912A01981778F490912901E091270147
:100E7000F0912801E90FF11D80818093BB009F5FF5
:100E800090932901ABC085ED8093BC008091BC009C
:100E900084FDFCCFB6C080E28093320185ED809363
:100EA000BC008091BC0084FDFCCFABC080E380938C
:100EB000320185ED8093BC008091BC0084FDFCCFA5
:100EC000A0C088E3809332018FC080912901909166
:100ED000BB00E0912701F0912801E80FF11D9083FC
:100EE0008F5F809329019091290180912A0174C01C
:100EF000809129019091BB00E0912701F091280198
:100F0000E80FF11D90838F5F8093290185ED809319
:100F1000BC008091BC0084FDFCCF73C083E0809353
:100F20002101109231015AC080913101803208F0C4
:100F300057C0809131019091BB00E0912F01F09159
:100F40003001E80FF11D90838F5F8093310146C01F
:100F500080913101803248F480913101E0912F017C
:100F6000F0913001E80FF11D108260913101E091A4
:100F70002501F091260180912F019091300170E0C0
:100F8000099532C084E08093210110922D011092C6
:100F90002E01E0912301F0912401099580912E0109
:100FA000882341F481E080932E01E0912B01F091A0
:100FB0002C01108290912D01E0912B01F0912C01D8
:100FC000E90FF11D80818093BB009F5F90932D01FD
:100FD00090912D0180912E01981710F485EC01C09D
:100FE00085E88093BC000FC085EC8093BC0009C0ED
:100FF0001092320185ED8093BC008091BC0084FD8D
:10100000FCCF10922101FF91EF91BF91AF919F9181
:101010008F917F916F915F914F913F912F910F90A1
:101020000FBE0F901F90189510922101449A459A77
:10103000E9EBF0E080818E7F808380818D7F8083EB
:1010400080E28093B80085E48093BC0080E290E069
:1010500061E070E00E94B80F80932701909328010F
:1010600080E290E061E070E00E94B80F80932B0175
:1010700090932C0180E290E061E070E00E94B80F54
:1010800080932F01909330010895FC018FB7F8945D
:101090007183608353834283178216821582148280
:1010A0008FBF0895DC014FB7F89414968D919C91F1
:1010B0001597892B11F4E0E025C016968D919C912F
:1010C0001797ED91FC911197E80FF91FE0810196B8
:1010D00017969C938E93169712962D913C91139789
:1010E0008217930730F0821B930B17969C938E9375
:1010F000169714968D919C911597019715969C9330
:101100008E9314974FBF8E2F0895FC014FB7F8941C
:101110008481958168177907B0F486819781860F5D
:10112000971F97838683228133818217930720F04C
:10113000821B930B9783868384819581861B970BF3
:101140009583848302C0158214824FBF0895FC01E9
:10115000CB012FB7F8942FBF26813781628173812D
:10116000820F931F0E94FC100190F081E02DE80F88
:10117000F91F808108951F93CF93DF93EC01162F01
:101180004FB7F8942C813D816A817B812617370700
:1011900098F48E819F81820F931F0E94FC10E8813A
:1011A000F981E80FF91F10838C819D8101969D8341
:1011B0008C834FBF8FEF02C04FBF80E0DF91CF9194
:1011C0001F910895FC018FB7F8948FBF228133815E
:1011D00084819581281B390BC9010895FC018FB7C3
:1011E000F894158214828FBF0895909334018093F0
:1011F000330108951F93182F8A3031F4E0913301A1
:10120000F09134018DE00995E0913301F0913401C2
:10121000812F09951F910895CF93DF93EC010097DB
:1012200021F406C021960E94FA0888818823D1F70C
:10123000DF91CF910895EF92FF920F931F93CF9379
:10124000DF938C017A010097E9F020E030E0261767
:10125000370738F4F80181918F012F5F3F4F8823C2
:10126000B1F7C0E0D0E00BC0F8018081882319F00D
:101270000F5F1F4F01C080E20E94FA082196CE1531
:10128000DF0590F3DF91CF911F910F91FF90EF90C9
:101290000895CF93DF93EC01009719F407C00E94E3
:1012A000FA08FE01219684918823C9F7DF91CF9136
:1012B00008958AE00E94FA080895E82FF0E0EF70A0
:1012C000F070E35CFE4FE4918E2F0E94FA080895BF
:1012D0001F93182F82958F700E945D09812F0E94A5
:1012E0005D091F9108951F93182F892F0E94680987
:1012F000812F0E9468091F910895EF92FF920F932A
:101300001F937B018C01C801AA27BB270E94730988
:10131000C7010E9473091F910F91FF90EF900895EC
:101320002F923F924F925F926F927F928F929F92F5
:10133000AF92BF92CF92DF92EF92FF920F931F93E3
:10134000DF93CF93CDB7DEB7A3970FB6F894DEBF88
:101350000FBECDBF4AA32BA337014801442351F050
:1013600017FF08C0EE24FF248701E618F7080809D4
:10137000190902C084017301262E262F215090E006
:101380003AA1311191E0291B29A318A2A82EBB2450
:10139000A7FCB094CB2CDB2CC801B701A6019501AA
:1013A0000E941011FB01EF70F070E35CFE4F64913E
:1013B0006F8FC801B701A60195010E941011C901E4
:1013C000DA017C018D019EE1492E512C4C0E5D1EEF
:1013D00039A025C0E114F10401051105C9F0C801C7
:1013E000B701A60195010E941011FB01EF70F0708A
:1013F000E35CFE4F6491F2016083C801B701A6016E
:1014000095010E941011C901DA017C018D0103C010
:101410002BA1F20120833A9408944108510833200B
:10142000C9F6CE014F968C0139A1031B11098AA17F
:101430008823E1F097FE05C08DE2F80182938F01C9
:1014400015C0C8010197611471048104910419F059
:101450008C018BE202C08C0180E2F801808306C01F
:10146000F80181918F010E94FA082A942220C1F785
:10147000A3960FB6F894DEBF0FBECDBFCF91DF911C
:101480001F910F91FF90EF90DF90CF90BF90AF90A2
:101490009F908F907F906F905F904F903F902F9094
:1014A00008957F928F929F92AF92BF92CF92DF92D8
:1014B000EF92FF920F931F93DF93CF93CDB7DEB7D9
:1014C0007888C988DA8853E1E52EF12CEC0EFD1EF0
:1014D00014C0882381F480E090E0CF91DF911F91C8
:1014E0000F91FF90EF90DF90CF90BF90AF909F90C3
:1014F0008F907F9008950E94FA0896012F5F3F4FCA
:10150000772021F0F6016901849103C0F601808102
:1015100069018532F1F62F5F3F4F772021F0F60108
:101520006901849103C0F60180816901843629F044
:10153000883781F08336F9F606C000E117E24AE009
:10154000A42EB12C0CC0F701808122E030E0E20E25
:10155000F31ED1CF00E010E130E1A32EB12C22E048
:10156000822E912C8E0C9F1CF701E080F180843636
:10157000B1F4F7FE11C0F094E194F108F3948DE218
:101580000E94FA0809C0C8016AE070E00E94FC10DD
:101590008B016230710518F0E016F106A0F3C70167
:1015A000B8010E94FC10862F0E945D09C701B80196
:1015B0000E94FC107C01C801B5010E94FC108B0147
:1015C0006115710561F7740198CF089580E090E08E
:1015D000FC01EE0FFF1FEB5CFE4F118210820196A3
:1015E00087309105A9F785B5887F826085BD16BCD7
:1015F00080916E00816080936E0010920E021092B6
:101600000F02109210021092110280918100887FC7
:1016100083608093810010928500109284008091F5
:101620006F00816080936F008091B100887F84603B
:101630008093B1001092B20080917000816080931D
:101640007000109216021092170210921802109257
:1016500019027894089585B5887F826085BD16BC8F
:10166000EEE6F0E080818160808310920E0210929D
:101670000F0210921002109211020895E1E8F0E0BA
:101680008081887F8360808310928500109284001F
:10169000EFE6F0E08081816080830895E1EBF0E087
:1016A0008081887F846080831092B200E0E7F0E060
:1016B000808181608083109216021092170210922E
:1016C000180210921902089595B5987F982B95BD30
:1016D0000895E1E8F0E09081987F982B9083089539
:1016E000E1EBF0E09081987F982B9083089585B589
:1016F000E82FF0E0E770F070EE0FFF1FE25BFE4FA7
:1017000025913491C901089580918100E82FF0E07E
:10171000E770F070EE0FFF1FE25BFE4F25913491F2
:10172000C90108958091B100E82FF0E0E770F070F2
:10173000EE0FFF1FE65AFE4F25913491C90108951F
:10174000873040F4E82FF0E0EE0FFF1FEB5CFE4F18
:10175000718360830895873040F4E82FF0E0EE0F46
:10176000FF1FEB5CFE4F118210820895EF92FF92F3
:101770000F931F93CF93DF93EC0116B510921202D3
:1017800010921302109214021092150285B5E82FE0
:10179000F0E0E770F070EE0FFF1FE25BFE4F259167
:1017A000349140E050E060E074E284EF90E00E9409
:1017B0003211B901CA01693B2DE8720726E08207A0
:1017C00020E09207A0F437E2C131D30780F49E01F4
:1017D00040E050E00E94DD1028EE33E040E050E0B1
:1017E0000E941011C901DA01BC01CD0121C028EE0F
:1017F00033E040E050E00E941011CA01B9019E019F
:1018000040E050E00E94DD1013C0809112029091E0
:101810001302A0911402B091150283B7817F83BF98
:1018200083B7816083BF889583B78E7F83BF08C0ED
:101830009B01AC01210F311D411D511D79018A0110
:10184000209112023091130240911402509115021E
:1018500086B590E0A0E0B0E0542F432F322F22272E
:10186000822B932BA42BB52B8E159F05A007B107B8
:1018700060F2DF91CF911F910F91FF90EF9008954B
:1018800010920E0210920F0210921002109211028A
:10189000089520910E0230910F0240911002509154
:1018A0001102B901CA01089510921602109217028E
:1018B0001092180210921902089520911602309188
:1018C00017024091180250911902B901CA010895F6
:1018D000893049F4809180008260809380008091FB
:1018E00080008E7F0EC08A3021F48091800082605B
:1018F00003C0809180008D7F809380008091800064
:10190000816080938000109289001092880010926C
:101910008B0010928A000895E0E8F0E020812E7F8D
:101920002083208122602083E1E8F0E0208128608C
:1019300020832081206120839093870080938600FC
:10194000109289001092880010928B0010928A00E9
:101950000895E0E8F0E080818D7F808380818E7F34
:10196000808380818F77808380818F7B808380815B
:101970008F7D808380818F7E80830895E0E8F0E012
:1019800080818068808380818F7B80830895E0E8F8
:10199000F0E080818062808380818F7E80830895E3
:1019A000E0E8F0E080818F77808380818F7B808387
:1019B0000895E0E8F0E080818F7D808380818F7ED4
:1019C0008083089590938900809388000895909370
:1019D0008B0080938A0008951F920F920FB60F928A
:1019E00011242F933F934F935F936F937F938F9324
:1019F0009F93AF93BF93EF93FF9380910E029091CB
:101A00000F02A0911002B09111020196A11DB11D0B
:101A100080930E0290930F02A0931002B0931102D4
:101A20008091120290911302A0911402B0911502BC
:101A30000196A11DB11D8093120290931302A093F1
:101A40001402B09315028091350190913601892BD3
:101A500029F0E0913501F09136010995FF91EF9160
:101A6000BF91AF919F918F917F916F915F914F91B6
:101A70003F912F910F900FBE0F901F9018951F92BE
:101A80000F920FB60F9211242F933F934F935F93B2
:101A90006F937F938F939F93AF93BF93EF93FF9336
:101AA0008091370190913801892B29F0E09137011D
:101AB000F09138010995FF91EF91BF91AF919F91FE
:101AC0008F917F916F915F914F913F912F910F90E7
:101AD0000FBE0F901F9018951F920F920FB60F9286
:101AE00011242F933F934F935F936F937F938F9323
:101AF0009F93AF93BF93EF93FF93809116029091C2
:101B00001702A0911802B09119020196A11DB11DF2
:101B10008093160290931702A0931802B0931902B3
:101B200080913F0190914001892B29F0E0913F0184
:101B3000F09140010995FF91EF91BF91AF919F9175
:101B40008F917F916F915F914F913F912F910F9066
:101B50000FBE0F901F9018951F920F920FB60F9205
:101B600011242F933F934F935F936F937F938F93A2
:101B70009F93AF93BF93EF93FF938091390190911F
:101B80003A01892B29F0E0913901F0913A01099548
:101B9000FF91EF91BF91AF919F918F917F916F9145
:101BA0005F914F913F912F910F900FBE0F901F901B
:101BB00018951F920F920FB60F9211242F933F93F7
:101BC0004F935F936F937F938F939F93AF93BF9345
:101BD000EF93FF9380913B0190913C01892B29F079
:101BE000E0913B01F0913C010995FF91EF91BF918C
:101BF000AF919F918F917F916F915F914F913F91A5
:101C00002F910F900FBE0F901F9018951F920F925B
:101C10000FB60F9211242F933F934F935F936F93BF
:101C20007F938F939F93AF93BF93EF93FF93809195
:101C30003D0190913E01892B29F0E0913D01F09109
:101C40003E010995FF91EF91BF91AF919F918F91C7
:101C50007F916F915F914F913F912F910F900FBEA8
:101C60000F901F9018951F920F920FB60F9211248C
:101C70002F933F934F935F936F937F938F939F9394
:101C8000AF93BF93EF93FF938091410190914201F5
:101C9000892B29F0E0914101F09142010995FF91D2
:101CA000EF91BF91AF919F918F917F916F915F91D4
:101CB0004F913F912F910F900FBE0F901F9018954D
:101CC0001F920F920FB60F9211242F933F934F93B1
:101CD0005F936F937F938F939F93AF93BF93EF9394
:101CE000FF938091410190914201892B29F0E0916D
:101CF0004101F09142010995FF91EF91BF91AF91A0
:101D00009F918F917F916F915F914F913F912F9113
:101D10000F900FBE0F901F9018959093C401809361
:101D2000C30108959B01AC0160587B47814E9F4FD2
:101D3000F3E0660F771F881F991FFA95D1F7E4E04B
:101D4000220F331F441F551FEA95D1F70E9410112F
:101D5000215030402093C4003093C50008958BE19A
:101D600092E0089584E292E00895982F80911A02FB
:101D70008823E1F39093C60010921A0208951092FE
:101D8000200210921F02089580911F02909120025C
:101D9000892B11F080E008958FEF08951F920F9224
:101DA0000FB60F9211242F933F934F935F936F932E
:101DB0007F938F939F93AF93BF93EF93FF93609124
:101DC000C6008091C3019091C401892B39F0E09144
:101DD000C301F091C401862F09950FC08BE192E0F9
:101DE0000E94BB08882349F480912C0290912D0217
:101DF000019690932D0280932C02FF91EF91BF9159
:101E0000AF919F918F917F916F915F914F913F9192
:101E10002F910F900FBE0F901F901895682F84E29E
:101E200092E00E94BB0808951F920F920FB60F9286
:101E300011242F933F934F935F936F937F938F93CF
:101E40009F93AF93BF93EF93FF93809123028823D7
:101E500079F08091280290912902892B39F084E24F
:101E600092E00E9452088093C60005C0109223029F
:101E70008FEF80931A02FF91EF91BF91AF919F91E5
:101E80008F917F916F915F914F913F912F910F9023
:101E90000FBE0F901F9018958FEF8093230284E25E
:101EA00092E00E945208982F80911A028823E1F351
:101EB0009093C60010921A020895CF93DF93EC011D
:101EC00080911D0290911E02892B69F080911F0262
:101ED00090912002892B39F08BE192E00E94520808
:101EE00088838FEF01C080E0DF91CF910895DF9369
:101EF000CF930F92CDB7DEB7CE0101960E945D0F52
:101F0000882319F42FEF3FEF03C08981282F30E099
:101F1000C9010F90CF91DF9108958BE192E063E4C6
:101F200071E040E450E00E94450884E292E063E8FA
:101F300071E040E450E00E94450808950E948D0F32
:101F40001092C4011092C30188ED8093C10060E833
:101F500075E280E090E00E94920E8FEF80931A026B
:101F60001092230210922D0210922C027894089560
:101F70000F931F93CF93DF93689F8001699F100D8C
:101F8000789F100D1124C8010E94D40FEC01009716
:101F900029F060E070E0A8010E94D610CE01DF9128
:101FA000CF911F910F910895CF93DF93BC018230A1
:101FB000910510F462E070E0A0913002B09131021E
:101FC000ED01E0E0F0E040E050E021C0888199813F
:101FD0008617970769F48A819B81309719F093835C
:101FE000828304C09093310280933002FE0134C09A
:101FF0006817790738F44115510519F084179507CA
:1020000008F4AC01FE018A819B819C01E9012097C3
:10201000E9F641155105A9F1CA01861B970B0497F2
:1020200008F4BA01E0E0F0E02AC08D919C9111978C
:1020300084179507F9F46417750781F412968D914A
:102040009C911397309719F09383828304C09093E7
:10205000310280933002FD0132964CC0CA01861BCA
:10206000970BFD01E80FF91F6193719302978D9310
:102070009C9340C0FD01828193819C01D9011097FE
:10208000A1F680912E0290912F02892B41F480912C
:1020900006019091070190932F0280932E024091A8
:1020A0000801509109014115510541F44DB75EB742
:1020B0008091040190910501481B590B20912E023B
:1020C00030912F02CA01821B930B8617970780F06D
:1020D000AB014E5F5F4F8417950750F0420F531FBF
:1020E00050932F0240932E02F9016193719302C025
:1020F000E0E0F0E0CF01DF91CF910895CF93DF933F
:10210000009709F450C0EC0122971B821A82A0911B
:102110003002B0913102109709F140E050E0AC1765
:10212000BD0708F1BB83AA83FE0121913191E20F23
:10213000F31FAE17BF0779F48D919C911197280F6B
:10214000391F2E5F3F4F3983288312968D919C91C2
:1021500013979B838A834115510571F4D093310203
:10216000C093300220C012968D919C911397AD01BF
:10217000009711F0DC01D3CFFA01D383C283219100
:102180003191E20FF31FCE17DF0769F4888199813F
:10219000280F391F2E5F3F4FFA01318320838A8138
:1021A0009B8193838283DF91CF910895DC0101C0ED
:1021B0006D9341505040E0F70895629FD001739FA6
:1021C000F001829FE00DF11D649FE00DF11D929FD3
:1021D000F00D839FF00D749FF00D659FF00D992712
:1021E000729FB00DE11DF91F639FB00DE11DF91F36
:1021F000BD01CF0111240895AA1BBB1B51E107C0EB
:10220000AA1FBB1FA617B70710F0A61BB70B881F86
:10221000991F5A95A9F780959095BC01CD01089515
:10222000A1E21A2EAA1BBB1BFD010DC0AA1FBB1FDA
:10223000EE1FFF1FA217B307E407F50720F0A21B4C
:10224000B30BE40BF50B661F771F881F991F1A94B9
:1022500069F760957095809590959B01AC01BD01E3
:10226000CF01089597FB092E05260ED057FD04D007
:10227000D7DF0AD0001C38F4509540953095219551
:102280003F4F4F4F5F4F0895F6F7909580957095AB
:0E22900061957F4F8F4F9F4F0895F894FFCFB9
:0A229E00737A5AFF2000320200009C
:00000001FF
